{
  "contractName": "Sample",
  "abi": [
    {
      "constant": false,
      "inputs": [
        {
          "internalType": "uint256",
          "name": "_num",
          "type": "uint256"
        }
      ],
      "name": "addNum",
      "outputs": [],
      "payable": false,
      "stateMutability": "nonpayable",
      "type": "function"
    },
    {
      "constant": true,
      "inputs": [],
      "name": "getNum",
      "outputs": [
        {
          "internalType": "uint256",
          "name": "",
          "type": "uint256"
        }
      ],
      "payable": false,
      "stateMutability": "view",
      "type": "function"
    }
  ],
  "bytecode": "0x60806040526000805534801561001457600080fd5b5060ca806100236000396000f3fe6080604052348015600f57600080fd5b506004361060325760003560e01c806367e0badb14603757806375278362146053575b600080fd5b603d607e565b6040518082815260200191505060405180910390f35b607c60048036036020811015606757600080fd5b81019080803590602001909291905050506087565b005b60008054905090565b80600054016000819055505056fea265627a7a723158209aad5b41cd388e8e562bc5217250266c97d571f0a6b41afd9581fe03bd461d8b64736f6c63430005100032",
  "source": "pragma solidity >=0.4.22;\n\ncontract Sample {\n    uint num = 0;\n\n    function addNum(uint _num) public {\n        num = num + _num;\n    }\n\n    function getNum() public view returns (uint){\n        return num;\n    }\n}\n",
  "sourcePath": "/Users/soolmini/Documents/ethereum/contracts/sample.sol",
  "compiler": {
    "name": "solc",
    "version": "0.5.16+commit.9c3226ce.Emscripten.clang"
  },
  "schemaVersion": "3.3.3",
  "updatedAt": "2021-01-14T05:05:09.151Z",
  "networkType": "ethereum",
  "devdoc": {
    "methods": {}
  },
  "userdoc": {
    "methods": {}
  }
}