{
  "contractName": "SampleCoin",
  "abi": [
    {
      "inputs": [],
      "payable": false,
      "stateMutability": "nonpayable",
      "type": "constructor"
    },
    {
      "constant": true,
      "inputs": [
        {
          "internalType": "address",
          "name": "",
          "type": "address"
        }
      ],
      "name": "balances",
      "outputs": [
        {
          "internalType": "uint256",
          "name": "",
          "type": "uint256"
        }
      ],
      "payable": false,
      "stateMutability": "view",
      "type": "function"
    },
    {
      "constant": true,
      "inputs": [],
      "name": "minter",
      "outputs": [
        {
          "internalType": "address",
          "name": "",
          "type": "address"
        }
      ],
      "payable": false,
      "stateMutability": "view",
      "type": "function"
    },
    {
      "constant": false,
      "inputs": [
        {
          "internalType": "uint256",
          "name": "_amount",
          "type": "uint256"
        }
      ],
      "name": "mint",
      "outputs": [],
      "payable": false,
      "stateMutability": "nonpayable",
      "type": "function"
    },
    {
      "constant": true,
      "inputs": [],
      "name": "get",
      "outputs": [
        {
          "internalType": "uint256",
          "name": "",
          "type": "uint256"
        }
      ],
      "payable": false,
      "stateMutability": "view",
      "type": "function"
    }
  ],
  "bytecode": "0x608060405234801561001057600080fd5b50336000806101000a81548173ffffffffffffffffffffffffffffffffffffffff021916908373ffffffffffffffffffffffffffffffffffffffff1602179055506102c6806100606000396000f3fe608060405234801561001057600080fd5b506004361061004c5760003560e01c8063075461721461005157806327e235e31461009b5780636d4ce63c146100f3578063a0712d6814610111575b600080fd5b61005961013f565b604051808273ffffffffffffffffffffffffffffffffffffffff1673ffffffffffffffffffffffffffffffffffffffff16815260200191505060405180910390f35b6100dd600480360360208110156100b157600080fd5b81019080803573ffffffffffffffffffffffffffffffffffffffff169060200190929190505050610164565b6040518082815260200191505060405180910390f35b6100fb61017c565b6040518082815260200191505060405180910390f35b61013d6004803603602081101561012757600080fd5b81019080803590602001909291905050506101c3565b005b6000809054906101000a900473ffffffffffffffffffffffffffffffffffffffff1681565b60016020528060005260406000206000915090505481565b6000600160003373ffffffffffffffffffffffffffffffffffffffff1673ffffffffffffffffffffffffffffffffffffffff16815260200190815260200160002054905090565b6000809054906101000a900473ffffffffffffffffffffffffffffffffffffffff1673ffffffffffffffffffffffffffffffffffffffff163373ffffffffffffffffffffffffffffffffffffffff161461021c57600080fd5b789f4f2726179a224501d762422c946590d91000000000000000811061024157600080fd5b80600160003373ffffffffffffffffffffffffffffffffffffffff1673ffffffffffffffffffffffffffffffffffffffff168152602001908152602001600020600082825401925050819055505056fea265627a7a723158200e62491532e320bdb17d8cb53e11c986adf61dfb833d9d29f4352cb16f45f36664736f6c63430005100032",
  "source": "pragma solidity >=0.4.0 <0.6.0;\n\ncontract SampleCoin {\n    address public minter;\n    mapping (address => uint) public balances;\n\n    constructor() public {\n        minter = msg.sender;\n    }\n\n    function mint(uint _amount) public {\n        require(msg.sender == minter);\n        require(_amount < 1e60);\n        balances[msg.sender] += _amount;\n    }\n\n    function get() public view returns (uint) {\n        return balances[msg.sender];\n    }\n}\n",
  "sourcePath": "/Users/soolmini/Documents/ethereum/contracts/SampleCoin.sol",
  "compiler": {
    "name": "solc",
    "version": "0.5.16+commit.9c3226ce.Emscripten.clang"
  },
  "schemaVersion": "3.3.3",
  "updatedAt": "2021-01-14T05:25:30.456Z",
  "networkType": "ethereum",
  "devdoc": {
    "methods": {}
  },
  "userdoc": {
    "methods": {}
  }
}